:020000040800F2
:2000000070120020450100081F1600080D1300081D1600089D0F0008BD24000800000000B3
:20002000000000000000000000000000691F00089F0F000800000000271A00088120000888
:200040005F0100085F0100085F0100085F0100085F0100085F0100085F0100085F01000860
:200060005F0100085F0100085F0100085F0100085F0100085F0100085F0100085F01000840
:200080005F0100085F0100085F0100085F0100085F0100085F0100085F0100085F01000820
:2000A0005F0100085F0100085F0100085F0100085F0100085F0100085F0100085F01000800
:2000C0005F0100085F0100085F0100085F0100085F010008292300085F0100085F010008F4
:2000E0005F0100085F0100085F0100085F0100085F0100085F0100085F0100085F010008C0
:200100005F0100085F0100085F0100085F0100085F0100085F0100085F0100085F0100089F
:200120005F0100085F0100085F0100085F010008DFF80CD000F050FD00480047ED47000864
:20014000701200200648804706480047FEE7FEE7FEE7FEE7FEE7FEE7FEE7FEE7FEE7FEE761
:200160009120000831010008D2B201E000F8012B491EFBD270470022F6E710B513460A46AB
:2001800004461946FFF7F0FF204610BD30B505462A460B4612F8010B13F8014B08B1A042A5
:2001A000F8D01CB1002802D06D1CF1E7284630BD421C10F8011B0029FBD1801A704730B547
:2001C00004460020034600E05B1C934203D2E05CCD5C401BF8D030BD70B50F4D00B928682C
:2001E000002412E00A4602E09E4203D0521C1378002BF9D1DAB2224305D02BB124B100217E
:2002000000F8011B04E00446401C0678002EE9D12860204670BD0000D403002070B5064657
:2002200002F086F9046805460A220021304600F09DFB2C6070BDF0B480EA0102D40F42005C
:20024000B2EB410F02D20246084611464A0042D0C30DDDB2C1F3C752AD1A202D35DAC1F391
:20026000160141F4000204B15242C5F1200602FA06F12A411044B3EBD05F23D0C4B1012DF6
:20028000A0EBC35009DCF0BC4FF0004202EAC352DBB200F5000000F0AABB400000F18070B5
:2002A00000EBC350A0F1807040EAD170490009E0490841EAC071A0EBC35000F5000040089A
:2002C00000EBC350F0BC00F089BB6142012202EB4101001BF6E7F0BC704781F00041AAE7AD
:2002E00080F00040A7E730B480EA010202F0004530F0004221F0004013D090B1C30DD40DB0
:20030000C2F31601C0F31600E41A41F4000140F400027D34914201D3641C00E04900002CB1
:2003200002DA30BC002070474FF400000023914201D3891A034340084FEA4101F7D151B19B
:20034000914202D14FF0004105E002D24FF0010101E06FF0010103EBC450284430BC00F0F1
:200360003DBB2DE9FE4F804681EA0300C00F0C46009021F0004123F00045B8EB0200A94104
:2003800005D24046214690461C460B46024623F00040104347D0270DC7F30A00C3F30A5102
:2003A0000290401A019040286BDAC3F3130040F4801B0098924620B10023D2EB030A63EBFF
:2003C0000B0B01985946C0F14002504600F09DFA06460D4650465946019A00F0B5FA10EBB6
:2003E00008006141002487EA115284EAE7731A4340D0009A62B3019A012A4FEA075215DC2E
:20040000001B61EB02014FF0004202EA0752CDE90042001C41F5801132462B4600F024FBD9
:2004200003B0BDE8F08F40462146F9E7001B61EB0201001C41F5801300185B412018A2F546
:20044000001747EB030140EAD570B6196D4111E06D084FEA360645EAC0754FEA0752001B77
:2004600061EB0201001C41F5801149084FEA30000019514132462B4603B0BDE8F04F00F075
:20048000E4BA0098012240000023D0EB020263EBE073009821464FEAE074B8EB000061EBC5
:2004A0000401E9E783F000435BE781F0004158E72DE9FE4F81EA030404F0004421F000411F
:2004C00000944FF0000B23F0004350EA01045ED052EA03045BD0C3F30A54C1F30A552C4476
:2004E000A4F2F3340194A0FB0254C1F3130141F48011C3F3130343F4801301FB024400FB58
:20050000034E840A970A44EA815447EA8357A4FB076802958D0A05FB07854FEA932C04FB8E
:200520000C542705029D4FEA065847EA1637B5EB08056EEB070C870E920E47EA811742EA38
:200540008312A7FB0201B6EB0B0164EB00042B0D43EA0C335E1844EB1C50DA465146E7FB13
:200560000201C5F313044FEA0B3343EA14534FEA0432019C43EA0603A4F10C040294009C85
:20058000CDE900B400F070FA03B0BDE8F08F00200146F9E72DE9F04D81EA030404F0004B75
:2005A00021F0004514464FF0000A23F0004150EA050220D054EA01021DD0C5F30A5702462E
:2005C000C5F31303C1F31300C1F30A5640F4801543F48013A7EB0608101BD64608F2FD38C9
:2005E00073EB050002D308F1010801E092185B41B8F1000F03DA00200146BDE8F08D00205C
:200600004FF48011064684460EE0171B73EB050705D3121B63EB050306434CEA010C49082E
:200620004FEA300092185B4150EA0107EDD152EA030012D082EA040083EA0501084305D0E7
:20064000101BAB4106D20122002306E000224FF0004302E06FF0010253101AEB06004CEBF2
:20066000085110EB0A0041EB0B01BDE8F04D00F0ECB970B521F0004303430CD0C1F30A55BF
:200680000024D5EB040564EB0403D617AD1AB34102DB0020014670BD201841EB025170BD1A
:2006A000C10F80EAE0700844CA079623002100F09EB996230022114600F099B90EB5C10F6B
:2006C00080EAE0700844CA07002140F233438DE80E000A460B4600F0C7F903B000BD0EB573
:2006E00040F2334102910021CDE900110A460B4600F0BAF903B000BD3EB5CA17CB0F002453
:2007000050405140C0186141DA0740F233430094CDE901232246234600F0A6F903B030BD47
:2007200000F0004220F00040C10DC0F3160040F400007F2901DA00207047962903DCC1F1C2
:200740009601C84001E096398840002AF4D04042704770B5C1F30A5201F000450024C1F318
:20076000130140F2FF3341F480119A4201DA002070BD40F233439A42A2F2334203DC524237
:2007800000F0D2F800E090402C43F1D0404270BD70B5C1F30A5201F000450024C1F31301B9
:2007A00040F2FF3341F480119A4202DA0020014670BD40F233439A42A2F2334203DC5242C3
:2007C00000F0B2F801E000F0A0F82C43F0D00023D0EB030063EB010170BD00F0004230F037
:2007E00000400AD0C10D01F56071C0F3160042EA0151C208400711437047002001467047C9
:2008000030B5041E71F1000404DB4FF00044404264EB0101141E73F1000405DB1C464FF01B
:200820000043524263EB0403994208BF904230BD01F0004330B421F0004150EA010206D0AE
:200840000A0DA2F56072C1F31301002A02DC30BC00207047440F44EAC104C100E01830BC9A
:2008600000EBC25000F0BAB8002801DBC0F10040002901DBC1F100418842704730B50B4675
:20088000014600202022012409E021FA02F59D4205D303FA02F5491B04FA02F52844151EEC
:2008A000A2F10102F1DC30BD2DE9F05F0546002092469B4688460646814640241BE02846B1
:2008C00041464746224600F02FF853465A46C01A914110D311461846224600F016F82D1A5B
:2008E00067EB01084F4622460120002100F00DF817EB00094E41201EA4F10104DFDC4846AE
:2009000031462A464346BDE8F09F202A04DB203A00FA02F1002070479140C2F1200320FA2B
:2009200003F3194390407047202A04DB203A21FA02F00021704721FA02F3D040C2F1200281
:200940009140084319467047202A06DBCB17203A41FA02F043EAE07306E041FA02F3D0402B
:20096000C2F1200291400843194670472DE9F04791460F4680460446002614F8015B2DB17B
:2009800000F03CF90068405DC007F6D12B2D02D02D2D18D0641E4A463946204600F032F921
:2009A00027B13968A14201D1C7F8008071054FF002040BD54042002803DD01F0B9FD04609A
:2009C000A007BDE8F08746F48066E4E70028F8DA01F0AEFD04606FF00040F2E70029A8BF67
:2009E0007047401C490008BF20F00100704710B4B0FA80FC00FA0CF050EA010404BF10BC5E
:200A0000704749B1CCF1200421FA04F411FA0CF118BF012121430843A3EB0C01CB1D4FEAC5
:200A200000614FEA102042BF002010BC704700EBC35010440029A4BF10BC7047401C490042
:200A400008BF20F0010010BC704710B5141E73F1000408DA401C41F1000192185B411A43C8
:200A600001D120F0010010BD2DE9F04D92469B4611B1B1FA81F202E0B0FA80F220329046B4
:200A8000FFF743FF04460F4640EA0A0041EA0B0153465A46084313D0114653EA010019D02F
:200AA000C8F140025046FFF73FFF05460E46504659464246FFF729FF084305D0012004E0D2
:200AC00020463946BDE8F08D0020054346EAE0762C4337430A986305E40AA0EB080000228B
:200AE000FD0A44EA47540A3002D500200146E9E7010510196941DDE9084500196941BDE88A
:200B0000F04DA2E72DE9F04D00231A461B1A8A4103DB00200146BDE8F08DC1F30A52C1F30E
:200B2000130141F480154FF0000BD10702D100186D41521E0027044640F2FF11384601EB8F
:200B4000620A3E468046024600204FF48011FFF7EBFEC2197141BB1846EB0100B4EB030C84
:200B600075EB000C04D3E41A65EB000517460E46241908F101006D4180463428E3DDF91955
:200B800046EB0600091BA84103D24FF0FF32134601E0002213461BEB070046EB0A51BDE8D9
:200BA000F04DFFF752BFC1F30A52C1F3130140F2FF3341F480119A4202DA00200146704719
:200BC00040F233439A42A2F2334202DC5242FFF7ABBEFFF79ABE0000064C074D06E0E06895
:200BE00040F0010394E8070098471034AC42F6D3FFF7A2FA98680008B868000800487047A3
:200C0000246800082DE9F05F82460078002715468B460AF10104B946302801D09DB113E0DF
:200C200014F8010B0127782803D0582801D045B10AE00DB1102D07D10027102514F8010B89
:200C400002E0082500E00A250026B0460EE005FB080005FB06F1012701EB10461FFA80F872
:200C6000B6F5803F00D3B94614F8010B294600F018F80028EBDABBF1000F05D00FB1641EF2
:200C800000E05446CBF80040B9F1000F06D001F04FFC02210160C81EBDE8F09F48EA0640F6
:200CA000FAE73A2800D2303820F02002412A01D3A2F13700884201D34FF0FF30704770B594
:200CC0008C1810F8015B15F0070301D110F8013B2A1106D110F8012B03E010F8016B01F851
:200CE000016B5B1EF9D12B0705D40023521E0DD401F8013BFAE710F8013BCB1A921C03E0F6
:200D000013F8015B01F8015B521EF9D5A142D8D3002070BD10B5022807D102F06DFC4FF09D
:200D2000FF3420B102F082FB08B1012010BD204610BD00007CB5274D022805D00024032873
:200D400007D001282DD042E04220ADF80000012220E021A11068FFF73FFAFFF75FFA80B260
:200D600000944FF0FF360194012801D020B116E00120ADF8000001E0ADF8004016A10020B2
:200D8000FFF72AFAFFF74AFA80B2FF2807D8ADF8020002226946284600F08CF917E03046FD
:200DA0007CBD0094032269462846019400F056F9BDF8001009A001F083FBBDF802100AA002
:200DC00001F07EFBBDF804100AA001F079FB01207CBD0000000001082C000000627566669F
:200DE000303A25640D0A000062756666313A25640D0A000062756666323A25640D0A00008C
:200E0000012070471CB5022809D106490322D1E90201CDE900016946034800F04BF90120EE
:200E20001CBD0000685D00080000010810B5022801D0012010BD06A001F042FB06480168CA
:200E4000064A01F4E06111430160BFF3408FFEE70D0A4F4B0D0A00000CED00E00400FA054D
:200E600038B5022818D100246846009400F0F2FE0098FFF7B2FC02460B4608A001F020FBA3
:200E80006846009400F08AFE0098FFF7A6FC02460B4604A001F014FB012038BD543A2566FC
:200EA0000D0A0000483A25660D0A000008B502280CD100200090684602F01AFD0098FFF73E
:200EC0008CFC02460B4602A001F0FAFA012008BD616E676C653A25660D0A000010B50228B2
:200EE0000DD003280BD108A11068FFF775F9FFF795F980B2411F2D2903D80449086001206C
:200F000010BD4FF0FF3010BD2C0000001400002010B5022810D003280ED108A11068FFF779
:200F20005BF9FFF77BF980B20549012803D010B14FF0FF3010BD0870012010BD2C000000E9
:200F40006801002010B5022806D0032804D0012802D102A001F0B4FA012010BD4149542D0E
:200F6000425530312D444220563130302054323032302D352D31370D0A000000064B002008
:200F8000014603F1B40200BF43F8201042F82010401C2D28F8DB7047B8080020FEE7704715
:200FA0000349024600200968114200D0012070470004014070B505464FF43026304600F05D
:200FC00067F8042811D1094C206940F0020020616561206940F040002061304600F058F81D
:200FE000216941F6FD721140216170BD0020024008490420CA68D20701D001207047CA6804
:20100000520701D502207047C968C906FBD5032070470000002002400248016941F0800156
:201020000161704700200240F0B506464FF400570D46384600F02CF804280CD1064C2069E1
:2010400040F0010020613580384600F021F82169BA1E11402161F0BD0020024010B5002376
:2010600006E000BF30F8134021F813405B1C9BB29342F7D310BD0000034802494160034931
:20108000416070472301674500200240AB89EFCD00B50346FFF7ACFF03E000BFFFF7A8FFF8
:2010A0005B1E012803D0002B00D1052000BD002BF4D1FAE72DE9F0414FF0006516460F4670
:2010C0000446A8421ED3104904EB4600884219D2FFF7D2FFA4F10060C00A05EBC020FFF75C
:2010E00069FF002508E000BF37F8151004EB4500FFF79AFF6D1CADB2B542F5D3BDE8F04128
:20110000FFF78ABFBDE8F08100000808F8B501217D2000F0A1FC4FF6FF70ADF800000020F8
:20112000304D8DF803006946284600F065F82E4F6946384600F060F82C4E6946304600F0BF
:201140005BF869462A4800F057F86946294800F053F80424ADF800408DF80340694638467F
:2011600000F04AF849F68150ADF800008DF803406946304600F040F84FF4EC50ADF800004F
:201180008DF803406946304600F036F86003ADF800008DF803406946284600F02DF80E2014
:2011A000ADF8000010248DF8034003278DF802706946284600F020F842F20800ADF8000067
:2011C0008DF803408DF802706946304600F014F80021012000F062F86102304600F093F84F
:2011E0000020F8BD00080140000C0140001001400014014000180140F0B5CA78002502F087
:201200000F03D20601D58A7813430A784FF00F0E12F0FF0F4FF001021CD004680F8802FA9B
:2012200005F63740B74211D14FEA850C0EFA0CF724EA070703FA0CF43C43CF78282F02D084
:20124000482F02D002E0466100E006616D1C082DE4D304600C88FF2C1ED944685FF00006E5
:2012600006F1080702FA07F50F882F40AF420FD14FEA860C0EFA0CF7BC4303FA0CF73C4345
:20128000CF78282F00D14561CF78482F00D10561761C082EE4D34460F0BD0000F0B5144C6F
:2012A000002801DAE36900E06368420D120185B2C0F301579540C0F30346032F05D0C202F4
:2012C0000AD50322B240934307E023F07062636823F07063636002E0AB4343F0706201B17B
:2012E0002A43002801DAE261F0BD6260F0BD0000000001400246002092680A4200D001203F
:2013000070474161704701617047000001A001F0D7F8FEE7486172644661756C745F4861DB
:201320006E646C6572200D0A000000000029018802D041F4806101E021F4806101807047B8
:2013400002460020938A128B43EA024323F07F42914300D1012070470029018802D041F0F3
:20136000010101E021F0010101807047094910B588424FF0010101D14C0501E04FF4800452
:20138000204600F05DFB2046BDE81040002100F057BB0000005400400029018802D041F4D4
:2013A000807101E021F48071018070470029018802D041F4007101E021F400710180704754
:2013C0000CB50246002000920A0F21F07F41019202D0009A143202E0009A090C18320092B6
:2013E00012680A4200D001200CBD000070B50446808886B00D4620F03F06684600F044FB3B
:2014000027490298B0FBF1F189B20E43A680228822F001022280234B2A689A421CD8520000
:20142000B0FBF2F080B2042800D20420491C2184A083208840F00100208021884FF6F53012
:201440000140A8886A89104308432080A88929890843208106B070BDEB88A3F53F46FF3E6B
:201460000BD002EBC20303EB0212B0FBF2F080B240F48040020506D007E002EB4202B0FB8A
:20148000F2F080B2F6E740F001004FF4967251434FF47A72B1FBF2F140F40040C6E700006C
:2014A00040420F00A0860100B1F5006F018803D021F400610180704741F40061FAE7008A54
:2014C000C0B2704712B141F0010101E001F0FE0101827047018270472DE9F04788461D462A
:2014E000164681460121FFF757FF294F642439464846FFF725FF10B9641EA4B2F7D20022A8
:2015000041464846FFF7DEFF14B9224900200860214F642439464846FFF712FF10B9641ECC
:20152000A4B2F7D231464846FFF7D4FF1A4E6424B61C31464846FFF703FF10B9641EA4B25E
:20154000F7D229464846FFF7C5FF642431464846FFF7F6FE10B9641EA4B2F7D2012148467A
:20156000FFF724FF0D4D642429464846FFF728FF10B1641EA4B2F7D200214846FFF7D6FE7B
:201580004F20401E80B2FCD20020BDE8F0870000010003000C020020820007001000001067
:2015A00038B50121480500F03FFA0121092000F053FAC020ADF8000003208DF802001C20B3
:2015C0008DF8030069461148FFF716FE104C2046FFF7CCFE0F49002088804BF6FF70C88077
:2015E0003020088120154881000188810A48086001212046FFF7B0FE06492046FFF7F6FE85
:2016000001212046FFF792FE38BD0000000C014000540040200C0020801A0600FEE770475E
:2016200070B50F23C47801780122F4B1144C2468457804F4E064C4F5E064240AC4F1040607
:20164000E3408478B5401C402C4301F1E021230181F80034007800F01F018A4040098000CC
:2016600000F1E020C0F8002170BD01F01F0082404809800000F1E020C0F8802170BD000059
:201680000CED00E00249084302490860704700000000FA050CED00E00907090E002806DA6A
:2016A00000F00F0000F1E02080F8141D704700F1E02080F80014704770B5002404F1B000B8
:2016C000C0B2002100F0F6F80021084600F0F2F80021102000F0EEF800250121002000F0D2
:2016E000E9F86D1CEDB2802DF7D3641CE4B2082CE4D370BD10B50021AE2000F0DBF80021A4
:20170000084600F0D7F80021102000F0D3F80021402000F0CFF80021812000F0CBF80021E2
:20172000CF2000F0C7F80021A12000F0C3F80021C82000F0BFF80021A62000F0BBF8002123
:20174000A82000F0B7F800213F2000F0B3F80021D32000F0AFF80021084600F0ABF8002139
:20176000D52000F0A7F80021802000F0A3F80021D92000F09FF80021F12000F09BF8002122
:20178000DA2000F097F80021122000F093F80021DB2000F08FF80021402000F08BF800215A
:2017A000202000F087F80021022000F083F800218D2000F07FF80021142000F07BF80021BE
:2017C000A42000F077F80021A62000F073F80021AF2000F06FF80021AF2000F06BF8FFF724
:2017E0006BFF0021BDE810400846AFF3008010B50446B031C8B2002100F05CF8102040EAD0
:201800001410002100F056F804F00F00BDE8104040F00100002100F04DB800002DE9F041BF
:20182000203A00240D468046D7B27F2803D900208D1C8046EDB22946FFF7D9FF0F4E00BF7E
:2018400004EB07100121305C00F034F8641CE4B2082CF5D36D1CE9B24046FFF7C8FF00241B
:2018600004EB071030440121007A00F023F8641CE4B2082CF4D3BDE8F0810000185E0008A2
:201880002DE9F04117460E46044600250CE031462046FFF7C3FF0834E4B2782C02D90024EB
:2018A000B61CF6B26D1CEDB27A5D002AEFD1BDE8F0810000084A30B41268012A0AD1074CA6
:2018C000034609B1402200E00022204630BC7821FFF702BE30BC70470C020020005400409B
:2018E0002DE9F0410E46074615461C46002102F043FC3146384602F050FC2146284602F0F7
:201900003BFC204602F0D2FAC0B2012825D10021384602F042FC204602F0C8FA10F0FF0FE4
:201920001BD10021284602F027FC2146284602F034FC3146384602F01FFC304602F0B6FA06
:20194000C0B2012809D10021284602F026FC304602F0ACFA10F0FF0F02D00020BDE8F0814B
:201960000120FBE72DE9F84F4FF01008ADF800100F468DF8038003241D46924683468DF8EE
:2019800002406946FFF738FC39465846FFF7BBFC00260096ADF800504FF048098DF8039009
:2019A0008DF8024069465046FFF726FC29465046FFF7A0FC012831D139465846FFF7A1FC91
:2019C00029465046FFF796FC40BB0096ADF800508DF803808DF8024069465046FFF70CFCE2
:2019E00029465046FFF78FFC0096ADF800708DF803908DF8024069465846FFF7FDFB39461D
:201A00005846FFF777FC012808D129465046FFF778FC39465846FFF76DFC10B10020BDE84C
:201A2000F88F0120FBE77047044A0029D16901D0014300E08143D1617047000000100240C0
:201A4000044A0029116901D0014300E0814311617047000000100240044A0029916901D01F
:201A6000014300E0814391617047000000100240044A0029D16801D0014300E08143D160E9
:201A8000704700000010024030B5224A5168224B11F00C0103D0042903D0082903D003607E
:201AA00016E01E4913E05168536801F470114FF0020413F4803F04EB914104D053689B03F3
:201AC00003D5154B02E0164B00E0144B5943016051680F2303EA1111124B5C5C0168E140B6
:201AE00041605468072505EA14241C5D21FA04F48460546805EAD4241B5DD940C1605268B7
:201B0000032303EA9232074B1B1F9A5CB1FBF2F1016130BD0010024000127A000024F40098
:201B200000093D00440100207CB5002000908DF80400FE20184C8DF8000001236A46802114
:201B4000204602F0E3FD42F22831491E89B2FCD2E7258DF8005001236A468021204602F0A2
:201B6000D5FD012301AA8021204602F027FD0223E62280212046FFF7AFFC8DF800500123D9
:201B80006A468021204602F0C1FD012301AA8021204602F013FD7CBD005400402DE9FC41E6
:201BA00006460020019005460090F5201E4F8DF80400012301AA8021384602F0A7FD4FF679
:201BC000FD742046401E80B2FCD203236A468021384602F0F3FC60B1142D07D913A10020F4
:201BE00000F06EFC4FF0FF30BDE8FC816D1CEDB2E7E79DF8010020F003008DF80100BDF821
:201C0000000040BAFEF755FDFEF7E7FD0E4A0F4BFEF74EFC00220E4BFEF744FCFEF708FE0E
:201C200030600020E0E700000054004053485432305F726561645F74656D2074696D6520B9
:201C40006F757420303300007644CF7701405F3F000018402DE9FC410646002001900546D7
:201C60000090F3201D4F8DF80400012301AA8021384602F04BFD4FF6FD742046401E80B2F8
:201C8000FCD203236A468021384602F097FC58B1142D06D912A000F013FC4FF0FF30BDE80F
:201CA000FC816D1CEDB2E8E79DF8010020F003008DF80100BDF8000040BAFEF7FAFCFEF7F2
:201CC0008CFD0E4A0E4BFEF7F3FB0E4A0E4BFEF7E9FBFEF7ADFD30600020E0E700540040B3
:201CE00053485432305F726561645F74656D2074696D65206F75742030330000619FC6DE85
:201D000007F7653FCDCCCCCCCC6C4740034A118821F0380101431180704700000030014004
:201D20000029018802D041F0400101E021F0400101807047F0B5294E87B0304600F052F83F
:201D40000021ADF800104FF48270ADF80200ADF808107015ADF80A001024ADF80410ADF84E
:201D60000C400720ADF80610ADF80E10ADF810006946304600F067F8A020ADF81400182098
:201D80008DF81700164F03258DF8165005A93846FFF732FA4020ADF8140048208DF81700C4
:201DA00005A93846FFF728FAADF814408DF817408DF8165005A93846FFF71EFA002130464E
:201DC00000F05DF801213046FFF7AAFF10213846FFF799FA07B00020F0BD0000003001405A
:201DE00000080140114910B588420AD1841401212046FFF73DFE2046BDE810400021FFF713
:201E000037BE0B49884202D10121041404E0094988420AD10121C4132046FFF711FE2046FD
:201E2000BDE810400021FFF70BBE10BD0030014000380040003C00400246002012890A424C
:201E400000D00120704730B502884C8802F441530A88CD8822438C882C4322430C892243DF
:201E60004C8922438C892243CC8922431A430280828B22F400628283098A018230BD00295F
:201E8000818802D041F0040101E021F004018180704700007CB50E46044630492F4808318A
:201EA00050F8240051F82410084340F001000121FFF7D2FD29480838F4B350F824000121F0
:201EC000FFF7B2FD18208DF8030024486946203830F81400ADF8000003208DF80200204837
:201EE00050F82400FFF788F904208DF803001B4869461C3830F81400ADF800001848083074
:201F000050F82400FFF778F9154D3146083D55F8240000F069FA4FF44070FFF7B3FB252030
:201F20008DF8040037208DF8060001208DF8070001A8FFF775FB00E00BE0012240F22551E4
:201F4000084800F038FA55F82400012100F003FA7CBD00680121FFF77FFDB3E7885D0008D3
:201F600078010020003801407047000001490020087070470D0000200CB5002126480191F0
:201F80000091026842F4803202604FF4A063026802F400320092019A521C0192009A12B991
:201FA000019A9A42F3D10268920333D5012100911A490A6842F010020A600A6822F0030220
:201FC0000A600A6842F002020A604168416041684160416841F480614160416821F47C1146
:201FE0004160416841F4F8114160016841F08071016001688901FCD5416821F003014160A9
:020000040800F2
:20200000416841F0020141604168C1F381010229FAD10CBD00910CBD001002400020024096
:202020000549054A0020C978521D02E0535C491C18440129FADB70470800002070B50F4887
:202040004FF47A710068B0FBF1F0B0F1807F14D220F07F404FF0E024401E606165170F21FB
:202060002846FFF719FB0020A0610720206105212846FFF711FB002070BDFEE754010020E2
:2020800002480168491C016070470000000000200F4810B5016841F00101016041680D4AD7
:2020A0001140416001680C4A11400160016821F480210160416821F4FE0141604FF41F017C
:2020C0008160FFF759FF05494FF00060086010BD001002400000FFF8FFFFF6FE08ED00E09F
:2020E0002DE9F84F8B4C0025DFF82CA2AB46257004F1A509962002F0C2F840F68C2002F083
:20210000D5F8217889F80210617889F8031081490022A5310C2002F09AF900210C2002F0A7
:20212000A7F9022002F0F4F8002001F0FDFF03F047F807464FF4AF78564604E003F040F85E
:20214000C01B404506D800210F2001F0A4FF3042A060F3D002217148FFF7D5F8208940049C
:202160007ED54FF48148424600210F2002F041F90021102001F08FFF00F07F01182903D8A0
:202180000022674801F0BBFF65486278C178914267D1604980F803B080F802B00A22B131EC
:2021A000FEF70DF800287DD102F0F5F9C4E90C0102F0DEF94FF02F62C4E90E01821841F1F4
:2021C0000000010641EA1220009001F0F7FF009820F00100010E0002C4E910014D48D4E95A
:2021E0000C23CA3002F0A3F94A48D4E90E23CE3002F09DF94748D4E91023D23002F097F91F
:2022000044482178C030002281706178C1700146182002F01CF90021182002F029F9032076
:2022200002F076F806E000BF02F0CAFFC01BB0F5FA7F06D800210F2001F02DFF3042A06028
:20224000F2D02089400455D5424600210F2002F0D0F80021102001F01EFF00F07F0101E063
:2022600048E04FE0182903D800222D4801F047FF2B4E6078F178814244D1264986F803B0EB
:2022800086F802B00A2296313046FDF798FF48B9B07A4FF47A714843F17A01EB810100EB72
:2022A000410200E02BE0307B06F58A6706F2045657F820301A4447F8202056F82010491CA8
:2022C00046F82010E168002056F820208A420DDB01F05EFA002059464FEA070246F820102D
:2022E00042F82010401C2D28F8DB08E0401C2D28EADB04E00B4A00210F2002F07AF820780D
:20230000401C20706D1CEDB22D2DFFF4F3AEBDE8F88F00000800002000D027240008014003
:20232000680400200090272410B5084C40F22551204600F021F8002807D0204600F0AAF80F
:20234000BDE81040C0B201F03BB810BD00380140C943018070470029818902D041F400511D
:2023600001E021F40051818170470246002012880A4200D00120704730B501F01F0201244B
:202380000025C1F3421304FA02F2012B0FD0022B0FD0838A4FEA11210088134204FA01F4BE
:2023A00000EA040001D000B10125284630BD8389F0E7038AEEE710B5C1F3421301F01F0405
:2023C0000121A140012B07D0022B07D01430002A026805D00A4304E00C30F8E71030F6E7DD
:2023E0008A43026010BD000030B50446008A85B00D464CF6FF710840E98801432182A18924
:202400004EF6F3100140A8882A8910436A890A431043A081A08A4FF6FF410840A9890143DD
:20242000A1826846FFF730FB1948844201D1039800E00298A189090400EBC00101EB0010BD
:20244000296801D5490000E08900B0FBF1F06422B0FBF2F109010B096FF018056B4300EB90
:202460008300A3891D044FF0320306D503EBC000B0FBF2F000F0070005E003EB0010B0FB7D
:20248000F2F000F00F000843208105B030BD0000003801408088C0F308007047C1F308011D
:2024A0008180704770B50D460646002403E0305D03F06AFB641CAC42F9DB70BDFEE7000060
:2024C0000FB4054B10B503A9044A029800F02AFA10BC5DF814FB000045450008D0030020C7
:2024E0000FB4084B10B504A902AA039800F01AFA044602A9002000F0ACFD204610BC5DF8D4
:2025000014FB000053300008490050EAC12018BF04204A0D18BF40F0010040F2FF72B2EB23
:20252000515F08BF40F00200012808BF0520704700487047D80300202DE9F0414F1E00EB8D
:20254000C7010446D1E9000115461E4637F006020DD02A463346FDF7ABFF7F1E04EBC70306
:20256000D3E90023FDF7FDFE37F00602F1D1022F25D0042F13D0062F18BFBDE8F0812A46CE
:202580003346FDF795FFD4E90A23FDF7EAFE2A463346FDF78DFFD4E90823FDF7E2FE2A46DF
:2025A0003346FDF785FFD4E90623FDF7DAFE2A463346FDF77DFFD4E90423FDF7D2FE2A4607
:2025C0003346FDF775FFD4E90223FDF7CAFE2A463346FDF76DFFD4E90023BDE8F041FDF789
:2025E000C0BE00000022134610460149FDF7D2BF0000F03F0122FEF73CB8FDF7B2BE0022FC
:20260000134610461146FDF7C5BF40F2013200204FF0E041FEF72DB8024A00201107FEF704
:2026200028B8000001FDFFFF02E008C8121F08C1002AFAD170477047002001E001C1121FBB
:20264000002AFBD1704700000149086070470000D803002038B504466D208DF800006B466F
:20266000012240F606012E2001F0D2FE41F6060114B140F2076201E041F207622E2001F091
:20268000ABFE38BD38B504466B4602220021362001F018FD0E2C2CD2DFE804F00F07152BCA
:2026A0002B2B2B1D392B2B44494E00208DF800009DF8010000F0FE0019E09DF8000000F06B
:2026C000FC00401C04E09DF8000000F0FC00801C8DF800000DE09DF8000000F0B30040F0C7
:2026E00048008DF800009DF8010040F080008DF801006B4601220021362001F089FE01225B
:20270000114636200DF1010301F082FE38BD9DF8000000F0B3008DF800009DF8010000F061
:202720007F00E4E79DF8010040F00200DFE79DF8010000F0FD00DAE79DF8000000F0CF0029
:2027400040F02000C4E708B503208DF8010001208DF800006B4602220021362001F058FEDF
:202760004FF4004206212D2001F036FE012000F0EDFF0120FFF786FF08BD08B5010A8DF890
:2027800001108DF800006B46022204212D2001F03FFE03208DF800006B46012206212D203E
:2027A00001F036FE00208DF800006B46012206212D2001F02DFE0A212D2001F06CFC08BD55
:2027C0002DE9FF5FDDE90220010DDDF838B0024318D044F61050A1F2FF3141430D140F98FC
:2027E000012820D0A5EB0B00401C5FEA000A4FF00004474EDFF81C91A046504616D5CAF1F8
:20280000000728E00F98012443A2012808D0002100980F9BC0E90021C0E90243BDE8FF9F99
:202820006FEA0B01F4E7CBF10000DEE7074612E0F80707D02246334640464946FDF738FEA2
:20284000804689462246334610461946FDF730FE04460E467F10002FEAD1DDE90201BAF1A0
:20286000000F42464B4602DAFDF722FE01E0FDF791FE04460E460022284BFDF7C1FF03D81A
:202880004FF0FF30014607E00022254B20463146FDF767FDFEF787F9102409E0002C0ADB32
:2028A0000A220023FEF700F8019B30321A55641E50EA0102F2D1641C019AC4F111031444B1
:2028C0000F9A012A03D0012208430DD10AE0084304D000204FF0110B0F9080E7A3EB0B05DD
:2028E0006D1E0DE05B4504DD4FF0000205F1010504E003DA4FF00002A5F10105002AECD01E
:2029000000980F99C0E90231C0E9004586E70000000024400000F03F300000000000F0434A
:202920000000E03F2DE9FF4F95B09B468946064600250FE2252877D100242746F84A012133
:20294000059400E0044316F8013F203B01FA03F01042F7D130782A2811D06FF02F033078F2
:20296000A0F13002092A16D8059A44F0020402EB820203EB42021044761C0590EFE759F855
:20298000042B0592002A03DA504244F40054059044F00204761C30782E2816D116F8010FE8
:2029A00044F004042A280DD06FF02F023078A0F13003092B09D807EB870302EB4303C7180D
:2029C000761CF3E759F8047B761C30786C280FD006DC4C2817D068280DD06A2814D104E009
:2029E000742810D07A280FD10DE044F400140AE044F4801401E044F440147278824202D1FC
:202A000004F58014761C761C307866280BD013DC582877D009DC002875D04528F6D046284B
:202A2000F4D047281AD19DE118E0632835D0642879D0652812D195E1702873D008DC672869
:202A4000F1D069286FD06E280DD06F2806D1B5E073282CD0752875D0782874D05A461799C2
:202A600090476D1C75E1C4F30250022809D003280DD0D9F8001004280DD00D6009F104092E
:202A800067E1D9F80010EA17C1E90052F6E7D9F800100D80F2E70D70F0E719F8041B8DF8E3
:202AA000001000208DF80100EA46012003E059F804AB4FF0FF3061074FF0000102D40DE053
:202AC00008F101018846B9420FDA8045F8DB1AF808100029F4D108E008F101018846814225
:202AE000FADB1AF808100029F6D105985B46A0EB080721463846179A00F094FA284400EBA4
:202B0000080507E04DE029E10DE01AF8010B5A4617999047B8F10108F7D25B462146384657
:202B2000179A13E142E00A220092C4F302524FF0000A022A08D059F804CB032A4FEAEC71D5
:202B40000AD00DE029E02AE009F1070121F00702F2E802C1914609E00FFA8CFC4FEAEC71FB
:202B6000042A03D14FFA8CFC4FEAEC71002907DA0A460021DCF1000C61EB02012D2202E018
:202B8000220504D52B228DF80420012203E0E20701D02022F7E7904659E00A2102E0102211
:202BA0000DE010214FF0000A00910BE010224FF0000A44F004040827009203E008224FF06E
:202BC000000A0092C4F30252022A05D059F804CB0021032A08D009E009F1070121F0070202
:202BE000F2E802C1914605E01FFA8CFC042A01D10CF0FF0C4FF00008220728D5702806D0F9
:202C0000009B83F0100353EA0A0305D00EE040228DF80420012208E05CEA010206D03022FF
:202C20008DF804208DF8050002229046009B83F0080353EA0A030AD15CEA010201D16207A5
:202C400005D530228DF804204FF001087F1E582804D034A003900EA802900DE036A0F9E714
:202C600053466046009AFDF71FFE84460398825C0298401E029002705CEA0100F0D1029889
:202C800006A9081A00F1200A600702D524F4803400E00127574502DDA7EB0A0000E000201F
:202CA00000EB0A01009005984144401A0590E00306D45B462146179A059800F0B3F9054485
:202CC000002706E001A85A46C05D179990476D1C7F1C4745F6DBE0030CD55B462146179AFC
:202CE000059800F09FF9054404E030205A46179990476D1C0099481E00900029F5DC08E011
:202D0000029802995A460078491C0291179990476D1CBAF10001AAF1010AF1DC65E10000F9
:202D2000092801003031323334353637383961626364656600000000303132333435363763
:202D400038394142434445460000000000F058F90544761C307800287FF4ECAD19B028463E
:202D6000BDE8F08F620700D4062709F1070222F0070CFCE80223E14603F000485FEA080CD5
:202D800002D00FF2702C0DE05FEA045C02D50FF2682C07E05FEAC47C02D00FF2602C01E012
:202DA000AFF2700C4FF0FF3823F00043CDF850C065280CD006DC452809D046281DD04728FA
:202DC0003DD13DE0662818D067287ED138E00021112F01DB112000E0781CCDE9000106A914
:202DE0000EA8FFF7EDFCDDE90F010E9A03910021009207F1010A04914DE04FF0004000979E
:202E0000CDE9011006A90EA8FFF7DAFCDDE90F0203920E9B11990022DDF80CA0009304922F
:202E200011B9791C00EB010AB7EB0A0004D4C0F1FF3007F1010A0490AAEB0700019044E0F1
:202E4000012F00DA01270021112F01DD112000E03846CDE9000106A90EA8FFF7B1FCDDE9ED
:202E60000F010E9A0391002104910092BA4621070CD40399514500DA8A46BAF1010F05DD3D
:202E8000009AAAF10101515C302908D0B84202DA10F1040F06DA0121CDE9011015E0AAF1DA
:202EA0000101E9E7002805DC049901440491AAEB000102E0411C514500DD8A460499401AB1
:202EC000401C01904FF000400290200704D40198504501DBCDF8048000208DF84F00029814
:202EE0000DF14F07B0F1004F25D02B200E9002984FF0020800280CDA404202902D200E90C0
:202F000007E00A210298FDF7B9FC3031029007F8011DB8F10001A8F10108F2DC0298002870
:202F2000EFD1791E0E980870307800F0200040F0450007F8020D12A8C01B00F107081498A0
:202F4000007800B1012000EB0A01019801EBE07105984144401A401E0590E00306D45B468E
:202F60002146179A059800F05DF805441498007818B15A46179990476D1CE00324D55B46F4
:202F80002146179A059800F04DF805441CE00498002807DBDDE90301884203DD0098405CB4
:202FA000179901E0179930205A469047049805F10105401C04900198401E019004D12E20D6
:202FC0005A46179990476D1CBAF10001AAF1010ADDDC05E017F8010B5A46179990476D1C86
:202FE000B8F10001A8F10108F4DC5B462146179A0598ABE62D0000002B0000002000000056
:203000002DE9F041044600251E461746880404D405E039462020B0476D1C641EF9D52846F3
:20302000BDE8F0812DE9F041044600251E469046C80301D5302700E02027880404D505E021
:2030400041463846B0476D1C641EF9D52846BDE8F0810A68531C0B60107070472DE9F04D41
:203060008D4F21F0004A86B005460C46BA452ADBAAEB070028430AD08848824501DC1AD102
:20308000CDB106B02846BDE8F04DFFF7B3BA844A844B2846FDF70CFA07460E46824A834B09
:2030A00028462146FDF704FA06B03A463346BDE8F04DFDF756B90120FFF7C6FA06B0BDE883
:2030C000F04DFFF79CBA7A48824542DABAF1795F0BDA2846FFF718FA042808BFFFF79CFA65
:2030E000284606B02146BDE8F08D2A460B461046FDF7DEF9834602466E480E460B460621AE
:203100007844FFF719FA5A463346FDF7D1F9804669488A465A46334604217844FFF70CFAD6
:203120005A463346FDF7C4F900223B46FDF719F902460B4640465146FDF72CFA2A46234673
:20314000FDF7B6F906B02A462346BDE8F04DFDF708B9284624F0004100223D463B46FDF7C9
:20316000A4F94FF0FF32FDF784FA0646024653480F460B4606217844FFF7DEF932463B4652
:20318000FDF796F9CDE900014D4832463B4604217844FFF7D1F932463B46FDF789F9002235
:2031A0002B46FDF7DEF8834602913046394602F05BFD804643480D46504517DCDDE9000146
:2031C0005A46029BFDF7E6F942462B46FDF770F942462B46FDF7C5F80122FDF74AFA304A0A
:2031E000304BFDF75FF9304A304B4CE04FF0000A52460B464046FDF7B4F8CDE9031052462E
:203200002B4610461946FDF753F932463B46FDF74CF9DDE90332FDF7BDF906460F46DDE90A
:2032200000015A46029BFDF7B5F983460091012230463946FDF71DFA194A1A4BFDF735F947
:2032400006460F46012240462946FDF712FA5A46009BFDF72DF932463B46FDF723F906460B
:203260000F46012250462946FDF703FA0E4DDFF858802A464346FDF718F932463B46FDF7EB
:2032800014F92A464346FDF710F9002CD8BF81F0004106B0BDE8F08D0000F03F0000F07F40
:2032A000075C143326A6913C182D4454FB21F93F0000E03FBC350000D23500004635000008
:2032C0005C3500003333EF3FFB21E93F2DE9F047ADF57C7D8A4681464FF0FF354FF0FA0852
:2032E00000244FF47A7101A8FCF745FF2DA14846FCF74CFFB0B32C4E484656F83410FCF712
:2033000045FF070011D056F83400FCF751FF3844A0EB09018AB20A2C41D201783F2908D06D
:203320000D2914D03D291ED039E0641C0A2CE3D335E041780D2932D180780A282FD106EB78
:20334000C400436873B101AA414601201BE040780A2824D106EBC40043681BB101AA41464F
:20336000022010E01BE0AAEB020101AB2C22401CCDF8008002F09EFC014606EBC4004368DA
:203380006BB101AA032098470546401C07D007A0FFF796F80DF57C7D2846BDE8F08705A091
:2033A000F6E7000041540000B80100200D0A4F4B0D0A00000D0A4552524F520D0A00000042
:2033C0002DE9F04106464FF0FF3701F0F9FE154C00256168401AC82803D86088B0F5007F7D
:2033E00001D36580657001F0EBFE60600E4960880E54401C81B261800A2E02D00D2E0DD072
:2034000008E06078012805D10748FFF75FFF65700746658065703846BDE8F08101206070E9
:20342000F9E7000068010020200A002070B501210820FEF711FB01210846FEF70DFB0121DA
:203440003048FDF72BFF304C4FF400735D10204622462946FEF786FA10F0FF0F42D02BA09A
:20346000FFF72EF8EE0129462D4D334622462846FEF778FA10F0FF0F36D02AA0FFF720F8B6
:20348000E314204622460221FEF76CFA10F0FF0F2CD029A0FFF714F82315224608212846DD
:2034A000FEF760FA10F0FF0F22D028A0FFF708F82023204622460821FEF754FA10F0FF0F74
:2034C00018D027A0FEF7FCFF1023224631462846FEF748FA10F0FF0F0ED026A0FEF7F0FF00
:2034E000012070BD28A008E02BA006E02FA004E033A002E037A000E03AA0FEF7E1FF00202F
:2035000070BD000000023000000C01405042382D50423920737563636573730D0A0000000D
:20352000000801405041382D5042313520737563636573730D0A00005042312D5042313140
:2035400020737563636573730D0A00005041332D5042313020737563636573730D0A000027
:203560005042332D50423520737563636573730D0A000000504131352D504234207375630D
:20358000636573730D0A0000205042382D504239206661696C0D0A00205041382D504231D8
:2035A00035206661696C0D0A00000000205042312D50423131206661696C0D0A000000002C
:2035C000205041332D50423130206661696C0D0A00000000205042332D50423520666169EB
:2035E0006C0D0A0020504131352D504234206661696C0D0A0000000010B500F0F1FB00F0DA
:20360000FCFB4FF480631A0191110801FEF768F910F0FF0F11D00CA0FEF752FF4FF40063EA
:203620001A0191110801FEF75BF910F0FF0F06D0BDE8104009A0FEF743BF0DA000E010A0C5
:20364000FEF73EFF002010BD494F20342D3620737563636573730D0A00000000494F2035DF
:203660002D3720737563636573730D0A00000000494F20342D36206661696C0D0A00000094
:20368000494F20352D37206661696C0D0A0000002DE9F0412C4E01236D24F3723346B446B8
:2036A0005C7334467223A3730223E373D83C334667781F74A58A5D742B0A8CF812300A2374
:2036C00090FBF3FCB6468EF813C090FBF3FC4FEA1C2C8EF814C091FBF3FC91FBF3F18EF855
:2036E00015C0B446090A8CF8161092FBF3F18CF8171092FBF3F13246090A117690FBF3F130
:2037000090FBF3F05176000A907610460D21C3760177114610200873B570F77000221F2040
:2037200000F095FE00211F2000F0A2FE002000F0EFFD00210F2000F0AEFC0006F9D5606993
:20374000401C6061BDE8F081E000002010B5044601F036FD04EB000401F032FD001B0028AD
:20376000FADD10BD002805D04FF0E0214FF40000C1F80001704710B51720FDF711FC00288F
:2037800005D04FF0E0224FF40001C2F8801110BD2DE9FC41454E0024A6F1B40556F82400EB
:2037A000002808DD55F8241091FBF0F0214600F085FE45F82400641C2D2CEFDB95E80700AD
:2037C000FFF766FF3A4F002456F82400002813DD55F82400FCF764FF3946FCF784FDFCF7AA
:2037E000FCFFCDE90001224632A13548FEF778FE334934A0FEF764FE641C2D2CE4DB30681D
:20380000002817DD2868FCF74BFF3946FCF76BFDFCF7E3FF02460B462CA12948FEF760FEE6
:203820002DA202210020FEF72BF8254A02210020FEF726F87068002817DD6868FCF730FFB3
:203840003946FCF750FDFCF7C8FF02460B4624A11B48FEF745FE25A204210020FEF710F8ED
:20386000174A04210020FEF70BF8B06800281ADDA868FCF715FF3946FCF735FDFCF7ADFF19
:2038800002460B4612A10E48FEF72AFE17A206210020FDF7F5FF02B00621BDE8F041084A80
:2038A0000020FDF7EDBFBDE8FC8100006C09002000007A44616E25643A25332E32666D00B6
:2038C000E003002025730D0A00000000616E303A25332E32666D00002009092020200000E0
:2038E000616E313A25332E32666D0000090920002DE9FC5F82460020009004466D4601905A
:2039000004F128002919C0B200F0B2F8641CE4B2062CF5D3BDF900000011FCF7C1FE064667
:20392000BDF902000011FCF7BBFE0446BDF904000011FCF7B5FE05463046FCF74EFF02460E
:203940000B463EA0FEF7BCFD2046FCF746FF02460B463DA0FEF7B4FD2846FCF73EFF0246EA
:203960000B463CA0FEF7ACFD3046FCF7D9FE002800DA4042FCF794FE83462046FCF7D0FE43
:20398000002800DA4042FCF78BFE04462846FCF7C7FE002800DA4042FCF782FE8146FCF706
:2039A0001CFF4FF080480022434601F00FFC05460E462046FCF711FF0022434601F006FC98
:2039C00007460C465846FCF708FF0022434601F0FDFB3A462346FCF7C4FC2A463346FCF7A4
:2039E000C0FC02F041F9FCF723FF044601464846FCF73AFF00D2A14621464846FCF773FC6F
:203A0000FCF7EBFEFFF72AFB0122FCF732FE144A144BFCF7BFFD0022134BFCF749FDFCF751
:203A200007FF01461148FCF758FC10F1FF4F00D30020CAF800000020BDE8FC9F6163635FAF
:203A4000783A25660D0A00006163635F793A25660D0A00006163635F7A3A25660D0A00005B
:203A60001F85EB51B81E0940008056400000B4422DE9F047384E0F46814632254FF400347E
:203A800021463046FDF79CFC0028F9D101213046FDF782FC314C30462146FDF791FC0028BE
:203AA000F9D0002229463046FDF70CFDDFF8B08030464146FDF744FC0028F9D0494630460B
:203AC000FDF708FDDFF8988008F1020841463046FDF736FC0028F9D001213046FDF75CFC03
:203AE00021463046FDF76CFC0028F9D0012229463046FDF7E7FC1B4C30462146FDF720FC69
:203B00000028F9D0174C3E3421463046FDF718FC0028F9D03046FDF7D2FC04464FF2FF71D6
:203B20003046FDF7C1FC00213046FDF7FFFB01213046FDF73BFC094D0F3529463046FDF7A3
:203B40003FFC0028F9D100213046FDF7EFFB3C700020BDE8F0870000005400400100001036
:203B6000820007000200030010B50B46024632210248FDF7B1FC002010BD0000005400409A
:203B800010B537212020FFF7EFFF03212120FFF7EBFFC0212220FFF7E7FF88212320FFF7BE
:203BA000E3FF7F213020FFF7DFFF02213220FFF7DBFF03213320FFF7D7FF5F21BDE8104062
:203BC0002020FFF7D1BF00002DE9F84F04460578407978494FF00009C84631F810706178A9
:203BE0007548491ECEB20163042D75D0072D73D000218A46217801736F49E2798969002AA3
:203C00006CD021F480018161217A4173217A4FF44033826903EA01410A438346826100211C
:203C2000042000F0E6FB3A4642F604012E2000F0D3FB3046FEF70EFD604F61490522785DFB
:203C400000EB8000431807212B2000F0E1FB5D49012201EB0A030B21282000F0D9FB785D90
:203C6000594951F820200C21282000F0C2FBE079564901EB8000A17930F8112002212720B6
:203C800000F0AAFB5248042130F81620272000F0A3FBE07938B3A07804282AD028208DF84E
:203CA000000020220621272000F096FB6B4601222621272000F0ACFB4648E17800EB0610F2
:203CC00050F821200821272000F093FBB4F80900A0B117E000E001E001218AE741F4800166
:203CE000FF08816190E764220621272000F074FBE2E710208DF800000246D3E741F241001D
:203D0000A4F80900B4F809202021272000F064FB314F0C2123203A6800F06BFB07EB460032
:203D200004218288232000F057FBA07958B1E0792A49012243180021212000F069FB4FF06E
:203D400003094FF0010805F00F00290740EA116061784FF4402202EA81410843920002EA4B
:203D6000095108434FF4003202EA4841084321794FF0F86202EA81510843617940EAC16206
:203D800000211F2000F035FBA07861784FF4004308430204CBF81020E179082043EA4131C7
:203DA0000A430021CBF8102000F023FB0020BDE8F88F000084640008300C00200864000888
:203DC000286400084664000810640008546400086064000864640008486400085064000855
:203DE00010B50021362000F056F940F440320021BDE81040362000F0FCBA08B56B460422FC
:203E00000021262000F05EF99DF802006B4620F0300040F010008DF8020004220021262018
:203E200000F0F6FA08BD10B504460421362000F032F914B140F4006201E020F40062042161
:203E4000BDE81040362000F0D4BA000038B540208DF8000000210E2000F01DF90446FFF732
:203E60008AFC0546002211460E2000F0C2FA6B46012200210D2000F0CBFA0A4A00210F20A3
:203E800000F0B7FA00F08EFA224600210E2000F0B0FA2846FFF766FC0349002081F82C00E1
:203EA00038BD0000F8FF2724300C002010B504462821262000F0EFF8204000D0012010BDDC
:203EC00070B50546164600240846FCF786FC0222FCF7CFFBFCF73DFCFF2800DDFF202A498C
:203EE000012EA1F108020CD0042D2DD0072D2BD0515D01EB810202EBC101244A02EB410155
:203F000033E0042D0AD0072D08D0515D01EB810202EB41111C4A083211440FE0495D1B4A2C
:203F200001EB0111883A02EB810100E0641C0A5D8242FBDBA4F11C001CE0641C0A5D824299
:203F4000FBDBA4F1170015E0495D01EB8102C2EB81110E4A6832114400E0641C0A5D8242C4
:203F6000FBDBA4F11E0005E0641C0A5D8242FBDBA4F11100FCF794FBFCF72FFCBDE87040B7
:203F8000034A044BFCF794BABE640008E26500087B14AE47E17A843F7CB50546324C04200B
:203FA0008DF8000000216175216384F8251084F82C10A1836163A16300F080F82B49206050
:203FC000884201D088177CBD0020FEF75BFB6B4601220021242000F01BFA1E20FEF7CDFBCA
:203FE00086B2300AA0730420FEF7C7FB10F0FF0F0CD002208DF8040001AB012212212D207D
:020000040800F2
:2040000000F006FAA08B40F48050A0830620FEF7B4FB60600720FEF7B0FBA06016F01F00E8
:20402000207501D110202075C0B200F02FFAE80706D0FEF788FBA08B40F40060A08309E0C1
:204040000521362000F014F820F400720521362000F0C2F90120FEF715FB0021042000F0E0
:204060001AF8A06100207CBD300C00203001CADE38B54FF6FF7489B280B26B46022200F0C8
:2040800021F830B99DF800009DF8011000EB012084B2204638BD38B54FF0FF3489B280B27A
:2040A0006B46042200F00EF830B903216846425C491E02EB0424FAD5204638BD00210846C5
:2040C000FFF7E9BF08B551B140F040008DF80000C8B27F2907D88DF8010002200BE08DF875
:2040E0000000012007E040F080008DF80100C8098DF802000320694601F04CFD08BD30B475
:2041000014460A462146034630BC1120FFF7DABF0346052200211520FFF7D4BF03460522DA
:2041200000211720FFF7CEBF38B5054600208DF8000000F037F94FF4807422460DB14FF407
:20414000407200210D2000F047F99DB16B46012203210F20FFF7B6FF9DF80000000709D595
:20416000FFF774FE224600210D2000F035F94FF0FF3038BD002038BD08B501438DF80010F5
:20418000080A8DF80100080C8DF802006B4603220821262000F03CF908BD08B501438DF837
:2041A0000010080A8DF80100080C8DF802006B4603220C21262000F02BF908BD0246012130
:2041C0000A2000F016B938B50446C0076B464FF002024FF000014FF026002DD0FFF772FFFB
:2041E0009DF80100012220F03C0040F014008DF80100114626200DF1010300F009F96B46AE
:20420000012202213620FFF75DFF9DF800006B4640F084008DF8000001220221362000F0A5
:20422000F7F810208DF8000001208DF80100022228216B4636200BE0FFF744FF9DF8010005
:204240006B4620F014008DF8010002220021262000F0DEF8A00711D50F208DF800006B46C0
:2042600001222A21362000F0D3F800208DF800006B4601222A21362000F0CAF838BD10B539
:20428000044600211A20FFF706FFC4F313026FF3130002430021BDE810401A2000F0A9B857
:2042A000024641F604012E2000F096B838B505466B46012203210420FFF704FF104C75B11F
:2042C0002A4600210C2000F087F89DF8000040F010008DF80000A06940F0805008E09DF8D2
:2042E000000020F010008DF80000A06920F08050A0616B4601220321042000F089F838BDAD
:20430000300C002002460021182000F065B80000F8B500240546224F26468DF8004080074E
:204320000BD580208DF800006B46012200210D2000F06EF8012087F82C00E8079DF80000B0
:2043400021D040F006008DF800006B46012200210D2000F05DF803210F20FFF789FE10F476
:20436000816F1AD040208DF800006B46012200210D2000F04DF80020FFF755FD87F82C60B4
:204380004FF0FF3409E040F002008DF800006B46012200210D2000F03BF82046F8BD0000AB
:2043A000300C00201CB56B46012203210F20FFF789FE9DF8000000F0800100F04000B1EB5A
:2043C000400F08D001208DF80400024601AB03210D2000F01DF81CBD08B589B28DF800204C
:2043E000120A8DF8012080B26B46022200F010F808BD38B500236C46E254120A5B1C042B7D
:20440000FADB89B280B22346042200F001F838BD08B551B140F0C0008DF80000C8B27F2997
:2044200009D88DF8010002200DE040F080008DF80000012007E040F080008DF80100C809C2
:204440008DF802000320694601F058FC08BD10B514460244B2F5806F02D94FF0FF3010BDE8
:204460000B46821E21460920FFF7D2FF002010BD054A10B5126940EA8150024300210820EF
:20448000FFF7B7FF002010BD300C002038B504466B4601220E212B20FFF714FE9DF8000005
:2044A00004F01F0120F01F0001438DF800106B4601220E212B20FFF7ABFF38BDF0B5002236
:2044C000134D052701EB8104134605EB8404002814DD643555F8216044F82600761C45F85D
:2044E0002160052E02D1002045F8210054F82200521CD2B20344052AF8D306E054F82200C2
:20450000521CD2B20344052AF8D393FBF7F0F0BDF003002010B500220A60835CD400A3404C
:204520000C68521C23440B60042AF6DB10BD10B500214254120A42EA03621B0A491C04291B
:20454000F7DB10BD70B5094C054640212046FDF7FFFEE9B22046FDF7A1FF40212046FDF7EF
:2045600004FF0028F9D0284670BD0000003801407CB5002425466846FFF7CAFD0420694635
:204580002D0245EA146522020C5C1443401EF7D5204629467CBD7CB5002425466846FFF7C5
:2045A000BDFD042069462D0245EA146522020C5C1443401EF7D5204629467CBD2DE9FF5F08
:2045C0001D4614468B464FF0000A64264FF4003739460098FCF7F4FE08B1761EF8D20121CB
:2045E0000098FCF7D9FE464F642639460098FCF7E7FE08B9761EF8D2642600225946009849
:20460000FCF760FFDFF8F880DFF8F89008F10F0849460098FCF794FEA8B1002E16DC012143
:204620000098FCF7C3FE444621460098FCF7C8FE0028F9D100210098FCF778FE4FF0FF306A
:2046400004B0BDE8F09F761EE2D2E8E7642601210098FCF7A1FE39460098FCF7B1FE08B90B
:20466000761EF8D26426012259460098FCF72AFF254F00983946FCF763FE08B9761EF8D2DE
:20468000DFF88490002609F13E094FF4006B6D1E15E0642749460098FCF752FE08B97F1E47
:2046A000F8D20098FCF70BFF04F8010B59460098FCF7FAFE01210098FCF738FE761CAE420C
:2046C000E7D30098FCF7FBFE20704FF2FF710098FCF7EAFE00210098FCF728FE012100985C
:2046E000FCF764FE444621460098FCF769FE0028F9D100210098FCF719FE5046A0E70000B0
:204700000100001082000700020003002DE9F0471F46164688468146002542F20F740AE091
:2047200032784146484600F00BF82046761C401E80B2FCD26D1CBD42F2D3BDE8F087000008
:204740002DE9F0410F46164680460121FCF724FE224D642429464046FCF7F2FD10B9641E4B
:20476000A4B2F7D2002239464046FCF7ABFE14B91B49002008601B4D642429464046FCF7C6
:20478000DFFD10B9641EA4B2F7D231464046FCF7A1FE144D6424AD1C29464046FCF7D0FDDD
:2047A00010B9641EA4B2F7D201214046FCF7FEFD0D4D642429464046FCF702FE10B1641EEC
:2047C000A4B2F7D200214046FCF7B0FD42F22730401E80B2FCD20020BDE8F0810100030050
:2047E0000C02002082000700100000102DE9F04F002493B0A046DFF8ECA3FB4EDFF8ECB31B
:2048000000F0BAFCFAA0FDF75BFE01F001FA01F028FA0120FFF7C0FB401C7DD001F01EFA88
:20482000F2485830FFF7D0F90120FFF7CCFC48F2B600FFF735FD0020FFF764FD0021F1A2D5
:204840000846FDF71DF8F2A0FDF73AFEF4A0FDF737FEFD48FB4AFA49C0E90012FC4AFB4974
:20486000C0E902120021C0E90411FA4AC0E90612C0E90811C0E90A11C0E90C11C0E90E1183
:20488000C0E91011F4480322D0E90010CDE9051005A9F248FCF7E2FBBDF81400012872D06D
:2048A000002871D00120AAF8000000BFBDF81600FF2803D8AAF802008BF804005C469BF8E0
:2048C0000410E7A0FDF7FCFDFCF758FB0021EAA20846FCF7D5FF4FF02D090020FFF7E6FCDB
:2048E0000020FFF721FC00210F20FFF7D4FB3042A060F8D0208940047DD54FF4814B5A4648
:2049000000210F20FFF775FD00211020FFF7C3FB40B2B0F5806F00E037E005DC81B2CA4837
:2049200000221838FFF7EBFBC74F4846183FB978B1FBF0F209FB121322799342CDD1B1FB8C
:20494000F0F209FB121AFD784FF00008A74987F8028087F803800A2263313846FBF72FFC3B
:2049600000284FD0A1490A22D8313846FBF727FC21790843B1D1F87A01287DD0B87AC249B2
:2049800001F000F9A9E71CE01FE0C0A0FDF798FD0021C4A20846FCF773FFC54C4FF40056D5
:2049A0004FF47A7531462046FCF7ADFC2846FEF7CDFE31462046FCF7A4FC2846FEF7C6FE87
:2049C000F0E70121AAF8001070E70021AAF80010BDF816105046FF2904D841808BF8011038
:2049E0008BF80210BAF80210B2A0FDF769FD5D469BF8010000E0ABE09BF8021088427DD153
:204A0000B1A27EE1FFF7B4FDC4E906014FF4FA70FFF735FC40F6E440FFF748FC73482178CD
:204A20006F3000228170C57001460F20FFF70FFD00210F20FFF71CFD0220FFF769FC00211A
:204A40000F20FFF728FB3042A060F8D0208940047ED55A4600210F20FFF7CBFC0021102096
:204A6000FFF719FB00F07F01182904DC764800221838FFF744FB00E03CE187F80280F978C7
:204A80004046A9427FF47EAFF87058496E480A227E311838FBF793FB0028F3D1FFF77BFD41
:204AA000C4E90801FFF764FDC4E90A0166480FA90E38FFF72FFD644811A90A38FFF72AFD9E
:204AC000614808A9801FFFF725FDA069029011980F998346D4F82880276A401AFBF7FFFDC3
:204AE00010900791A8EB0700FBF7F9FD0E9108990490A1EB0B00FBF7F2FD00E000E1834626
:204B000002980391381AFBF7EAFD074688460E9B049A07991098FBF724FC5A46039BFBF750
:204B200020FC3A464346FBF71CFCCDE90C013A46434658460399FBF7BBFC074688460E9BD3
:204B4000049A07991098FBF7B3FC3A46434600E0CAE0FBF7A7FCDDE90C23FBF71BFDFBF7B5
:204B600017FEFBF7C9FD5C4A5C4BFBF7A1FC4FF098525B4BC4E91201FBF79AFCC4E91401B3
:204B8000FBF756FE01461948583042780078FFF797F9D4E91423FBF788FC0022514BC4E912
:204BA0001401FBF785FCFBF7D4FD642290FBF2F30E4996318B7290FBF2F302FB1300C872DF
:204BC00081F80CA020788870CD7000220F20FFF73EFC00210F20FFF74BFC0020FFF798FB2C
:204BE0007BE600000802002000D027240800002068656C6C6F2064776D31303030210D0A72
:204C000000000000494E49542050415353000000696E69742070617373210D0A0000000046
:204C20004149542D425530312D444220563130302054323032302D352D31370D0A00000071
:204C4000B81E85EB51B8BE3F80040020C3F5285C8FC2D53F0000D03F605D000800000108E6
:204C60006465766963653A616E63686F722049443A25640D0A000000445320545752204173
:204C80004E54484F52000000D003002064776D3130303020696E6974206661696C210D0AC5
:204CA00000000000494E4954204641494C000000001001406465766963653A544147204944
:204CC000443A25640D0A00004453204D4153544552205441473A0000FA48CE3B1835B13D77
:204CE00019DDB14100005940FE4A00210F20FFF780FBF2E5FD70397BFB48FDF7D3FBECE55C
:204D0000FAA200210846FCF7BBFD9620FFF7B7FA40F68C20FFF7CAFA6978A878AB4681422F
:204D200003D10127FDF722F985E10027F34800780028FBD0D7B3F24D02212846FCF7E1FA0D
:204D400004212846FCF7DDFAFDF7CAF99BF801109BF802200027914228D0EA489BF800200F
:204D6000D9468270C170014600220D20FFF76FFB00210D20FFF77CFB0020FFF7C9FA00F077
:204D80001FFAC9F8100007E000F01AFAD9F81010401AC8283FF634AD00210F20FFF77BF933
:204DA0000006F1D504212846FCF7ADFA9BF801109BF802005D4681427CD1FDF731F9E8BB4D
:204DC000EC785FE0CF484FF000090D30014680F80290C4704A460D20FFF739FB00210D20DA
:204DE000FFF746FB0220FFF793FA00F0E9F9286106E000BF00F0E4F92969401AC828C9D88D
:204E000000210F20FFF747F93042A860F2D02889400430D54FF4814200210F20FFF7E9FAA7
:204E200000211020FFF737F900F07F01182904DCAD4800220D38FFF762F900E02AE0AA4ADF
:204E400048460D3A82F80290D178A14218D18946D070AC49A4480A2227310D38FBF7AFF909
:204E600070B9A8490120F23901F809000421A448FCF749FA04E09B4A00210F20FFF7B9FAC1
:204E8000641CE4B2002C9DD0EC7801E0641CE4B2002CFBD0B8F1000F65D1FDF7C1F800284E
:204EA0007ED0DFF860920020A9F1F20989F80000EC7896E0C2E000BF19F80400012870D1EB
:204EC0009620FFF7DCF940F68C20FFF7EFF98D4800211A300A468170C47001460D20FFF772
:204EE000B6FA00210D20FFF7C3FA0220FFF710FA00210F20FFF7CFF83042A860F8D02889DF
:204F0000400465D502217E48FCF7FDF94FF4814200210F20FFF76DFA00211020FFF7BBF894
:204F200000F07F01182904DC6F4800220D38FFF7E6F86D4900200D398870CA78A2424ED195
:204F4000C87008216E48FCF7DEF96E4966480A2234310D38FBF733F918BB08F10100C0B2D8
:204F60005FEA000861D043F2BC40FFF79FF90020FFF7DAF800210F20FFF78DF83042A860C3
:204F8000F8D02889400440D54FF4804200210F20FFF72FFA00211020FFF77DF840B201E03C
:204FA00032E01CE0B0F5806F05DC81B24E4800220D38FFF7A4F84C4800250D380A2285708D
:204FC00090F80390C5704F49FBF7F9F868B12CE0002109F80410434A0F20FFF70AFA641C75
:204FE000E4B2002C3FF468AF1FE04648F23810F80910012919D100F80950B8F1000F14D0CC
:20500000A8F1010000F0FF080FE0B8F1000F07D0A8F1010000F0FF083A490020F2390855C5
:20502000304A00210F20FFF7E4F9FCF7F9FF00287FF47CAE01274FF0000877E60020FFF741
:2050400035F90020FFF770F800F0BAF8286106E000F0B6F82969401AC8283FF6D1AB002147
:205060000F20FFF718F83042A860F1D02889400473D54FF4814200210F20FFF7BAF9002163
:205080001020FFF708F840B2B0F5806F05DC81B2154800220D38FFF732F8134900200D39AA
:2050A0008870CA786B789A42C7D1C87015490E480A220D310D38FBF782F840BB1148297863
:2050C0002730002281706978C17001460D20FFF7BEF900210D20FFF7CBF90020FFF718F904
:2050E000042111E00090272475040020445320534C415645205441473A0000006801002035
:2051000000080140FF0000201748FCF7FCF80A2216491748FBF753F800288ED11348297837
:205120001A30002281706978C17001460D20FFF78EF900210D20FFF79BF90020FFF7E8F841
:2051400000210F20FEF7A7FF0006F9D5012702210548FCF7D8F8E9E5FFE7064A00210F20E1
:20516000FFF747F9E2E500000008014019010020680400200090272410B501217D20FCF7D1
:205180006BFC01210803FCF767FC01218803FCF74BFCFBF7BBFFFCF751FFFCF7CBFD642010
:2051A000FEF7D4FA00F094FDFCF7FAF9FEF7E8FCFCF7BAFCFCF79EFABDE81040FCF77CBA9A
:2051C0000148006870470000000000202DE9F04D16460F4694B01C4621F0004123F00042F6
:2051E000002814BF4FF0010C4FF0000C0CEB470CFE4B0CEB03054FEA630C65452BD3350006
:2052000018BF012505EB44051D44F94B9D4222D3F84B52EA060C02D09F4205D148B914B000
:2052200000201946BDE8F08D002808BF4FF0000C01D04FF0010C0CEB470313F5001F0AD82C
:20524000002E14BF4FF0010C4FF0000C0CEB440313F5001F07D914B0324623463946BDE8A8
:20526000F04DFDF7CAB9DFF890834FF0000A002FB8BF424523DAE14B9A42A8BF4FF0020A63
:205280001DDADC4B93421ADCDD4B03EB2253142B08DDC3F1340C26FA0CF303FA0CFCB44565
:2052A0000DD108E05EB9C3F1140C22FA0CF303FA0CFC944503D103F00103C3F1020A51EA7E
:2052C00000031BD1002C19DA002F18BFBAF1020F02D0BAF1010F07D00220FDF7B5F914B012
:2052E000BDE8F04DFDF77EB90220FDF7ADF9FDF779F914B081F00041BDE8F08D330070D173
:20530000424525D107F1804212F5801201BF00280020B84914B008BFBDE8F08DB548884240
:2053200007DC002CA1BF1846214614B0BDE8F08D07E0002CBFBF184684F0004114B0BDE846
:20534000F08DB0497944D1E9000114B0BDE8F08DDFF8A0C262452AD1002C24DA39B1414504
:2053600017D1002804BF002002461CD106E040B10220FDF769F9FDF748F90A46394600F0C2
:20538000D7BA9D4A394614B0002062F31E01BDE8F08D08DA14B03B46BDE8F04D024600202B
:2053A0006146FBF7F7B814B03946BDE8F08D414517DAB4F1804F0CD0A4F10053B3F1FF539B
:2053C0000FD13B1E0DDB14B01946BDE8F04D00F04BBC3B4614B00246BDE8F04D1946FBF7F0
:2053E00067B8050027F000433AD1E1B1414537D1002F06DD002CA1BF0020414614B0BDE856
:20540000F08D002F01DD002C1FDB002F16DA002C14DBBAF1010F4FF0000014BF76497A4953
:2054200014B0BDE8F08DBAF1020F18BF002F0CD0BAF1010F09D1002F07DA0BE0002FB8BFB2
:20544000002C0DDABAF1010F04D0002014B00146BDE8F08D14B000204FF00041BDE8F08DD7
:205460004FF0010808EBE77CCDF814C05CEA0A0C0DD0DFF898C162457EDDDFF894C1654BAE
:20548000624512DD8B420ADB002C18DB23E00120FDF7DAF814B0BDE8F04DFDF7B0B8554A1A
:2054A0008A4202DC002C0ADC15E0994202DA002C11DA04E04F4B994219DD002C0BDD0220E8
:2054C000FDF7C2F8FDF7A1F84B4A14B061F31E021146BDE8F08D0220FDF7B6F8FDF79CF8FF
:2054E000444A14B061F31E021146BDE8F08D00223946FAF7D7FF07460D466FF00102FBF711
:20550000B8F84FF05532444BFAF7CFFF3A462B46FAF7CEFF0022414BFAF7C7FF80468B461C
:205520003A462B4610461946FAF7C2FF42465B46FAF7BEFF88460E904FF0C042384B38468E
:205540002946FAF7B5FF83460091364A344B41460E98FAF7ADFF80460191334A334B384643
:205560002946FAF7A5FF4246019BFAF79BFF0D4602460B460C9000E011E058460099FAF7F7
:20558000F0FE002788465A463846009BFAF78AFF2B460C9AFAF789FF024600F079B90020DB
:2055A000B1F5801F07DA352228461946FBF761F805466FF0340000EB2150A0F2FF300190CA
:2055C000C1F3130040F07F6141F04051029118498842D8BF4FF0000B35DD16498142C8BFD8
:2055E0004FF0010B2FDC4FF0000B25E0FFFF1F00FFFF0F000000F03F0000F07F00004043BB
:2056000001FCFFFF501400000000F0FF0000E0410000F043FFFFEF3F5555D53F0000E03FDF
:205620004715F73FFE822B6544DF5DF80BAE543E8E9803007AB60B000198401C0190029881
:20564000A0F580100290FF480299784400EBCB000991D0E9002328460B931292FAF722FF07
:2056600000910A9028460B9B129A0999FAF779FE02460B460020F449FAF78CFFCDE90C0100
:205680000B46024600990A98FAF712FF0690EF488846002778440299006810904FF0005084
:2056A00040EA610000EB8B4000F5002102910B9B129A1098FAF7F6FE2A46099BFAF7F5FE29
:2056C0003A464346FAF7F4FE0891129038464146029B109AFAF7ECFE009B0A9AFAF7E5FE69
:2056E000089B129AFAF7DEFEDDE90C23FAF7E0FE0B91069A1290434610461946FAF7D8FEE7
:2057000005460246D2480B460A9106217844FCF713FF0A9B2A460891029010461946FAF722
:20572000C7FE089B029AFAF7C3FE05460991434638461946069AFAF714FE0B9B129AFAF782
:20574000B7FE2A46099BFAF70CFECDE908013A46434610461946FAF7ABFE0A910022BD4BA9
:205760000090FAF7FEFDDDE90823FAF7FAFD0D463A46B84B3846FAF795FE0A9B009AFAF7CC
:2057800091FEDDE90823FAF790FECDE908013A462B4610464146FAF78BFE00910A90DDE912
:2057A00008014346069AFAF783FE069088462B463A460B991298FAF77BFE4346069AFAF71E
:2057C000D0FD80460B4602460D9100990A98FAF7C8FD00200F460546009B0A9AFAF762FEBE
:2057E00042460D9BFAF761FE88460E904FF06042994B28463946FAF75BFE02910090974ABD
:20580000954B41460E98FAF753FE80460391944A944B28463946FAF74BFE4246039BFAF7E4
:20582000A0FD914A7A4402EBCB03D3E90023FAF798FD054607910198FAF740FF0C90039136
:205840002A46079B02990098FAF78BFD874A7A4402EBCB03D3E9002393460193FAF781FD85
:20586000039B0C9AFAF77DFD002788463846039B0C9AFAF717FE5A46019BFAF713FE029BE1
:20588000009AFAF70FFE2A46079BFAF70EFE02460020069005986C4DAAF10103184301D141
:2058A000734D069000200B46049030462146FAF7FFFD82468B46234630461946049AFAF75D
:2058C000F1FD3A464346FAF7F3FD52465B46FAF748FD06468A463A46434621460498FAF768
:2058E000E7FD04460F4632465346FAF73AFD614A8B46914221DBABEB020353EA000210D1E6
:2059000022463B46FAF7CEFD804603915A4A5B4B30465146FAF725FD4246039BFAF770FF98
:2059200027D20220FCF790FEFCF76FFE0A46294614B062F31E01BDE8F08D514B2BF0004259
:205940009A4216D34F4A0BEB020353EA000208D122463B46FAF7A6FD32465346FAF750FF08
:2059600007D80220FCF770FEFCF756FE0A462946DEE72BF000404449444A01EB20514FF0E8
:205980000008824223DA481C4FF4801121FA00F058443F4AC0F30A517A443E4BA1F2FF31BE
:2059A000CB4020EA0303C0F3130040F4801CC1F1140012682CFA00F8BBF1000FB8BFC8F1ED
:2059C000000820463946FAF76DFD04460F4622463B4630465146FAF7C4FC4FF0000B5A464F
:2059E0002D4B58460391FAF763FD00910A902B4A2B4B58460399FAF75BFD04910290224684
:205A00003B4658460399FAF74DFD32465346FAF74CFD244A244BFAF74BFD049B029AFAF703
:205A2000A0FC07468A46009B0A9AFAF79AFC04460E46009B0A9AFAF735FD3A465346FAF7DD
:205A400034FD33E0C21000000000F03F00110000301000000000084009C7EE3FFD033ADC55
:205A6000F5015B14E02F3EBE080F0000CE0E00000000F0BF00009040FE822B654715973C05
:205A800000CC904000346F3F01FCFFFF0000E03FFC0D0000FFFF0F00432EE63F396CA80C69
:205AA000615C20BEEF39FAFE422EE63F0746224633460F9110461946FAF7FAFC834602461B
:205AC0002E488A460B4605217844FCF735FD5A465346FAF7EDFC22463346FAF7E6FC824699
:205AE0008B463A46204631460F9BFAF7E1FC3A460F9BFAF736FC0F460A9000224FF08043A0
:205B000050465946FAF7CEFC0391009052465B4620463146FAF7CCFC039B009AFAF73AFD42
:205B20003B460A9AFAF7BEFC22463346FAF7BAFC0022134BFAF7B9FC0E46044601EB085104
:205B40000815002810DC424620463146FAF791FDFCF7DAFC042808BFFCF75EFD4246204638
:205B60003146FAF786FD044606980B4614B022462946BDE8F04DFAF79BBC0000A40C00008C
:205B80000000F03FFEF7DEBC0149FEF7DBBC0000D00300202DE9F05F1D4616468A4607463D
:205BA0000024FDF7E8FD18494FF010098346C1F80090DFF858800DE01AF80410A8F80C109F
:205BC00001214046FCF738F90028F9D0B8F80C002870641CBC42EFDB00200246414606E097
:205BE0008A810B89DB07FCD08B892B54401CB042F6D30549091FC1F800905846FDF7B2FDAE
:205C00000020BDE8F09F00001408014000300140F8B54FF48054ADF8004010208DF8030001
:205C20000D4E03258DF8025069463046FBF7E4FA21463046FBF765FBADF8004000208DF85C
:205C400003008DF8025069463046FBF7D5FA0220FDF77CFDF8BD0000000C01400820FCF7D8
:205C600055B82020FCF752B82DE9F04106460F46FAF748FF04000D4618BF0120284320F0F0
:205C80000040C0F17F6000F1E040C00F0ED0301C18BF0120384320F00040C0F17F6000F1E6
:205CA000E040C00F04BF0120FCF7CEFC20462946BDE8F08110B50022029C19B114B11860DD
:205CC000012002E0002010BD521C8A42FCD310BD1FB54FF4E13000900020ADF80400ADF8D8
:205CE0000600ADF80800ADF80C000C20ADF80A0069460020FCF7CEF81FBD00002DE9F041BA
:205D0000984615460F4606460024FDF734FD0246114810230360114806E0395D81810189C8
:205D2000C907FCD08189641CB442F6DB002107E018F8014084810489E407FCD08489491C62
:205D4000A942F5D30448001F03601046FDF70AFD0020BDE8F081000014080140003001406D
:205D600001000000FF000000000204000004080001000000FF000800800000010002000086
:205D8000004000000000020004000000040000000400000004000000100000008000000021
:205DA000800000008000000001000020000100200040008008008000040000001000000045
:205DC00000010000000100000001000000010000200000000001000001000020000100205C
:205DE00000400080080080000000020006000600060006000300060000000D0008000D0016
:205E00000E000F00030007000600280017002800280028000900170000000000000000007E
:205E20000000000000000000000000F800000000000000333000000000100C06100C0600C3
:205E4000000000000000000040C07840C0784000043F04043F040400007088FC0830000054
:205E6000001820FF211E0000F008F000E018000000211C031E211E0000F00888700000003F
:205E80001E2123241927211010160E00000000000000000000000000000000E018040200D9
:205EA000000000071820400000020418E00000000040201807000000404080F080404000F6
:205EC0000202010F01020200000000F0000000000101011F01010100000000000000000094
:205EE00080B0700000000000000000000000000000010101010101010000000000000000FB
:205F000000303000000000000000000080601804006018060100000000E010080810E000B6
:205F2000000F102020100F00001010F8000000000020203F2020000000700808088870008C
:205F4000003028242221300000300888884830000018202020110E000000C02010F8000013
:205F600000070424243F240000F80888880808000019212020110E0000E01088881800009A
:205F8000000F112020110E0000380808C83808000000003F000000000070880808887000F3
:205FA000001C222121221C0000E010080810E0000000312222110F00000000C0C00000001E
:205FC000000000303000000000000080000000000000806000000000000080402010080009
:205FE00000010204081020004040404040404000040404040404040000081020408000008E
:020000040800F2
:206000000020100804020100007048080808F0000000003036010000C030C828E810E00062
:206020000718272423140B000000C038E0000000203C23020227382008F8888888700000D2
:20604000203F202020110E00C030080808083800071820202010080008F808080810E0007B
:20606000203F202020100F0008F88888E8081000203F20202320180008F88888E808100028
:20608000203F200003000000C03008080838000007182020221E020008F808000008F8088D
:2060A000203F210101213F20000808F8080800000020203F2020000000000808F8080800EF
:2060C000C08080807F00000008F888C028180800203F20012638200008F80800000000006B
:2060E000203F20202020300008F8F800F8F80800203F003F003F200008F830C00008F808AC
:20610000203F200007183F00E01008080810E0000F10202020100F0008F808080808F000FC
:20612000203F210101010000E01008080810E0000F18242438504F0008F88888888870000E
:20614000203F2000030C302000708808080838000038202121221C00180808F808081800F9
:206160000000203F2000000008F808000008F808001F202020201F000878880000C83808C2
:20618000000007380E010000F80800F80008F800033C0700073C030008186880806818081D
:2061A00020302C03032C30200838C800C83808000000203F2000000010080808C838080022
:2061C0002038262120201800000000FE020202000000007F40404000000C30C00000000089
:2061E000000000010638C00000020202FE000000004040407F00000000000402020204004F
:20620000000000000000000000000000000000008080808080808080000202040000000076
:20622000000000000000000000008080808000000019242222223F2008F80080800000005C
:20624000003F112020110E000000008080800000000E112020201100000000808088F800FF
:20626000000E112020103F200000808080800000001F222222221300008080F088888818F6
:206280000020203F202000000000808080808000006B94949493600008F800808080000025
:2062A000203F210000203F2000809898000000000020203F202000000000008098980000C0
:2062C00000C08080807F000008F8000080808000203F24022D302000000808F80000000075
:2062E0000020203F202000008080808080808000203F20003F20003F8080008080800000C2
:20630000203F210000203F200000808080800000001F202020201F008080008080000000C0
:2063200080FFA12020110E000000008080808000000E112020A0FF80808080008080800060
:2063400020203F212000010000008080808080000033242424241900008080E08080000040
:206360000000001F202000008080000000808000001F202020103F208080800000808080D0
:2063800000010E300806010080800080008080800F300C030C300F00008080008080800096
:2063A0000020312E0E312000808080000080808080818E70180601000080808080808000E1
:2063C0000021302C2221300000000000807C020200000000003F404000000000FF0000000F
:2063E00000000000FF0000000002027C800000000040403F000000000006010102020404CB
:2064000000000000000000000000010203040005405C0000A05C0400C06C0800805C0400BD
:20642000E03F1E00E07D1E00070400091E0805400826091040085608054008261D0400089C
:20644000BE1D040008BED8BC07A9022570889B88401008000A00160001000600010002008F
:2064600087008D002D001A3152001A339A001A351D011A376B003B31BE003B335E013B35C7
:2064800096023B37000099599959EB518F421E45142E0080EB51F5283333E13A703DE13A3A
:2064A000C235852BC2353333C235C235AE47E13A5138A330513800000102000300000000EF
:2064C0000000000000010103040507090B0C0D0F121417191C1E2124282B2F32363A3F42F1
:2064E000474C5259626D7F9BDEFFFF010204050608090A0C0D0F121416181B1D2023262926
:206500002C2F33373A3E42474E55606F87C2F0FF01020304050708090A0C0E10121416185C
:206520001A1C1F2124272A2D3134373B3F454C556278ADD5FF0101020304050606070809B8
:206540000B0C0E0F1012141517191B1D1F222426292C30353B44537894FF07070809090A00
:206560000B0B0C0D0E0F1011121314151617181A1B1C1E1F20222426282A2C2E3032343788
:20658000393B3D3F4244474A4E5155595E63686E747B828B96A4B6CFEEFFFFFFFFFF040563
:2065A000050506060707070809090A0A0B0B0C0D0D0E0F101111121314151617191A1B1D11
:2065C0001E1F202223242627282A2C2E303234373A3D4044484B50555C65707F93A8B6C299
:2065E000CDFF010202030405070A0D101316181B1E2023262B30384E65789DFF010202034B
:20660000040406090C0E111315181A1C1F21252A314459698AFF01010203030405080A0D41
:206620000F11131517191B1E21252C3C4F5D7AFF010101020203040607090A0C0D0F10115F
:206640001315171A1E2A374155FF07080809090A0B0C0D0D0E0F101011121313141516188C
:20666000191B1C1D1E202122232527292B2D303235383C40444A5159626D7A88929AA2B268
:20668000DCF9FFFFFF0405050506060707080809090A0A0A0B0B0C0D0D0E0F10101112130C
:2066A000131415161718191A1C1D1F212325272A2E32363C434B535A5F646E8799ACC0FF4B
:2066C000555555555555C53F7D6FEB0312D6D4BF5544880E55C1C93F3B8F68B52882A4BF22
:2066E00088B20175E0EF493F09F7FD0DE13D023F4B2D8A1C273A03C0C88A599CE52A004052
:2067000059018D1B6C06E6BF82922EB1C5B8B33F000000000000F03F000000000000F83F98
:2067200000000000000000000000004003B8E23F000000000000000006D0CF43EBFD4C3EE3
:20674000033333333333E33FFFAB6FDBB66DDB3F4D268F515555D53F01411DA96074D13FE7
:2067600065DBC9934A86CD3FEF4E454A287ECA3F3E5555555555C53F93BDBE166CC166BFC5
:206780002CDE25AF6A56113FF16BD2C541BDBBBED0A4BE726937663E0000000000000000B9
:2067A000004040404040404040404141414141404040404040404040404040404040404014
:2067C00040050202020202020202020202020202022020202020202020202002020202020C
:2067E0000202909090909090101010101010101010101010101010101010101002020202ED
:2068000002028888888888880808080808080808080808080808080808080808020202029C
:2068200040000000A16700084154000041542B4750494F544553540041542B52535400008B
:2068400041542B464143544F5259000041542B616E63686F725F74616700000041542B6961
:206860006E74657276616C0041542B74656D5F68756D000041542B76657273696F6E0000A7
:2068800041542B7377697463686469730000000041542B78797A0000B868000800000020F3
:2068A000DC030000BE0C00082C6A0008DC030020940E0000382600089184010101024B0518
:2068C0001F0202080209095B252104418827DE5741564521390C47564557411002791BE26B
:2068E000237918CAAA0F0931420215FE791FAAE00DAAE10DAAE20DAAE30D2AE4E04404069A
:20690000082D0102030404150607080984A24A0479148114380140124412401A0808A90473
